:400000000040002011000000010700000107000080B500AF00F078FB80B584B000AF021CFB1D1A70204A3B1C0B3312781A701F4A3B1C0A3312781A700423013BFB6018E046
:400040001B4B1868391C0B31FA68131C5B009B18C3185B780B70164B1868391C0A31FA68131C5B009B18C3189B780B70FB68013BFB60FB68002B0ADB0D4B1968FA68131CF1
:400080005B009B185B5CFA1D12789A42D8D9094B3A1C0B3212781A60074B3A1C0A3212781A60BD4604B080BDCCF1FF0FCDF1FF0FD00000201CFF0B4020FF0B4080B500AF4B
:4000C000294B12221A600C20FFF7A6FF274B0C221A60052001F028FC254B264A1278D2B21A60052001F048FF01F0D8FCFA235B00181C01F01DFF012001F0E0FC1E4B1F4AC0
:400100001A601F4B8022D2051A601E4B1E4A1A601E4B1E4A126808218A431A60FA23DB00181C01F075FC1A4B181C01F025FF194B00221A60184B194A1A60194BC02292008E
:400140001A60154B174A1A60174BA62212061A60164B40221A60164B41221A60024B00221A60BD4680BDC046300010402CFF0B4028FF0B40D9F1FF0F04010B40060000804E
:400180000C020B407C002E406A2D00006CF02E40DC050000000301400000014040FF00800403014041FF008008010B401C0101401801014080B582B000AF72B6414B002276
:4001C0001A60FB1D00221A7023E0FB1D1A78131C5B009B185B003C4A9B183B603B681A78597809020A43997809040A43DB781B0613431A1C3B6819795B791B020B439BB21E
:40020000101C191C00F004FBFB1D1A78FB1D01321A70FB1D1B78012BD7D92C4A2C4B101C191C00F005FB2B4B03221A602A4B00221A602A4B00221A60294B81221A60294BEE
:400240008022D2031A60284B802212021A60274B01221A60264BC1221A60264B264A1A60264B274A1A60274B802212061A60264B992212041A60254B802292021A60244B65
:40028000234A1278D2B202210A43D2B21A70214B204A1278D2B23C218A43D2B214210A43D2B21A701A4B1A4A1278D2B216210A43D2B21A70FFF702FF00F0FAFABD4602B02A
:4002C00080BDC0466CF02E4084150100901501009C15010000030240000002400800044000020440080204400C0204401802044000030440080304400600D80020500F40B5
:400300000400990024500F4030500F4038500F4000700F4001700F4010B5064C2378002B07D1054B002B02D0044800E000BF0123237010BDE003002000000000541501005A
:4003400008B5084B002B03D00748084900E000BF07480368002B03D0064B002B00D0984708BDC0460000000054150100E4030020C80000200000000080B500AF012000F034
:400380005FFB012000F09AFB62B601F0CDF801F0DDF801F0D5FE064B181C00F03FFD054B181C00F0CBFB00F07DF9BD4680BDC046D9050000A105000090B583B000AFFFF7AD
:4003C000DBFF01F075FA00F065F801F02FFA00F08DF9021C2B4B1A602A4B1A682A4B1B68D21A2A4B9A4206D900F0AEF8254B1A68254B1A6024E023E002F0CAF8FC1D01F096
:400400009CFA031C2370BB1D1B78032B0CD103F067FB031C042B04D003F062FB031C062B09D101F0D7FD06E003F05AFB031C022B01D001F0B5FDFB1D1B78181C01F081FA0F
:4004400000F054F9021C0F4B1B689A42D4D0104B1B78002B14D000F029FD00F07BFA00F091FA012000F0ECFA012000F027FB002000F00CFB002000F045FB01F0E1FDA0E7EA
:400480009FE7C046FC03002000040020E70300001104002090B583B000AF00237B6001F071F9022001F07CF9BC1C002001F09CF9031C238001F064FE041C01F089FE031CFC
:4004C0009C422ED91A4B1B78002B26D0194B1B78002B08D0174B00221A7000F007F9021C154B1A6019E000F001F9021C134B1A60124B1A68104B1B68D31A7B607B68002BA2
:4005000007D00F48796801F049FF031CDAB20D4B1A700A4B1A68084B1A60054B00221A7002E0034B01221A70BD4603B090BDC046CC000020CD000020080400200C0400202B
:4005400060EA00000404002090B583B000AF114B1B78002B1BD03B1D002002211A1C00F0F9FA0D4B1A783B1D5A700C4B3C1D1A785B781B021A4300231204120C1B0C1B04F1
:400580001343181C00210222231C00F031FBBD4603B090BD10040020040400202425002080B582B000AF786039607B687222FF32934204D0B9225200934204D007E0054B64
:4005C00001221A7003E0034B00221A70C046BD4602B080BD1004002080B582B000AF786039607B68282B1CD004D8012B09D0262B0ED039E0422B27D0712B29D0412B17D027
:4006000032E0002000F060FC002000F019FA2BE0174B1B78042B03D1164B01221A7023E022E0144B01221A70134B00221A701BE000F05CF8021C114B1A60012000F000FAAF
:40064000002000F03BFA0FE00D4B00221A700BE03B681B88002B03D1074B02221A7002E0054B03221A70C046BD4602B080BDC0461C25002011040020180400201404002029
:400680001004002080B500AF054B1B681A1C0A32034B1A60042001F07BFBBD4680BDC0461C04002080B500AF0F4B0820191C01F0A5FB01F04DFA0020012101F087FA0020CC
:4006C000012101F0B3FA4023FF330020191C01F017FB012001F0E2FA082001F009FC01F00DFABD4680BDC0468506000080B500AF024B1B68181CBD4680BDC0461C0400200A
:4007000080B500AFFEE7C04680B586B000AF224B7B61224B3B61204B7B6135E03B691B68FB603B695B68BB603B699B683B6000237B600CE0FB681A68BB681A60BB68043316
:40074000BB60FB680433FB607B6804337B607A683B689A42EED13B69DB683B6000237B6008E0BB6800221A60BB680433BB607B6804337B607A683B689A42F2D13B691033B8
:400780003B617B69013B7B617B69002BC6D101F0B5FEFFF711FEFEE701000000EC1B010080B582B000AF154B144A126801218A431A6000237B600FE07B68032B04D8104B78
:4007C0007A689200D35800E00E4B0F4A796889008B507B6801337B607B682F2BECD9FFF7E9FC0A4B00221A60044B044A126801210A431A60BD4602B080BDC046000010407B
:40080000000000000107000000000020C000002080B582B000AF786039607A683B68101C00211A1C01F0A8FEBD4602B080BDC04680B586B000AF7860396000233B61002325
:400840007B612EE07B699B007A68D3181B68BB603B1C0F33BA681A70BB68FF229343BB6017E03B695B003A68D3181B781A1CBB68D3183A69520039688A1852781A703B69A0
:4008800001333B613B1C0F331A783B1C0F33013A1A703B1C0F331B78002BE2D17B6901337B617B69022BCDD9BD4606B080BDC04680B500AF0E4BC02212061A600D4B032200
:4008C0001A600D4B0D4A1A600D4B03221A600D4B802212051A600C4B8022D2031A600B4B0B4A1A60012000F015F8BD4680BDC04600003040300030408000304004400400BA
:400900003000314000003A4000033A40000E3F400301008080B584B000AF021CFB1D1A700B4B1B68FB60FB1D1B78002B05D0FB68802212061343FB6003E0FB685B005B0885
:40094000FB60034BFA681A60BD4604B080BDC04680033A4080B582B000AF094B1B68DAB2FB1D7F218A431A70054BFA1D12781A60FB1D1B78DB09DBB2181CBD4602B080BDC6
:400980001002044080B500AF00F050F8054B181C00F00EF8032000F017F800F03DF8BD4680BDC046A909000080B500AFBD4680BD80B582B000AF7860024B7A689A64BD46CA
:4009C00002B080BD0000002090B585B000AF021CFB1D1A701623FB603C1C0B3400F0ADFF031C23700A4B0A4A11680A4A1140FA1D1078FA68041C9440221C0A431A603B1C6E
:400A00000B331B78181C00F09CFFBD4605B090BD00E400E0FFFF3FFF80B500AF024B04221A60BD4680BDC04600E100E080B500AF024B04221A60BD4680BDC04680E100E0F1
:400A400080B584B000AF021CFB1D1A700E4B1B68DAB23B1C0F3340218A431A70FB1D1B789B01DAB240231340D9B23B1C0F333A1C0F3212780A431A70034B3A1C0F321278D1
:400A80001A60BD4604B080BD0003044080B582B000AF021CFB1D1A70064B064A1168064A1140FA1D127892040A431A60BD4602B080BDC04608030440FFFFE3FF80B584B062
:400AC00000AF021CFB1D1A700D4B1B68D9B23B1C0F337F220A401A70FB1D1B78DB01D9B23B1C0F333A1C0F3212780A431A70044B3A1C0F3212781A60BD4604B080BDC0468C
:400B00000003044080B582B000AF021CFB1D1A70064B064A1168064A1140FA1D127852050A431A60BD4602B080BDC04608030440FFFF1FFF80B500AFBD4680BD80B582B030
:400B400000AF7860024B7A681A60BD4602B080BD2004002080B586B000AF3A60FB1D021C1A70BB1D0A1C1A703B1C163300221A80FB1D1B78022B04D93B1C163301221A80A5
:400B80002CE0FB1D1B78012B07D11123002B04D13B1C163313221A8020E0FB1D1B78134A5B00D3185A883B1C08331A81BB1D1B789AB23B1C08339A803B1C08333A681A6069
:400BC0003B1C0833181C002101220CF083F8031C002B03D03B1C163301221A803B1C16331B88181CBD4606B080BDC046AC15010090B589B000AF3C1C0C3420807B603B1C2E
:400C00000B3319703B1C0A331A702C4B1B78022B05D03B1C1E33832252001A8047E03B1C0B331B78022B04D93B1C1E3301221A803DE00F23002B13D00F235A1E2049131C2D
:400C40009B009B189B00CB1808339B68181C00F0CDF9031C1A1C012313409BB2002B05D13B1C1E330422FF321A8020E03B1C0B331B78144A5B00D3185A883B1C10331A81EA
:400C80003B1C10337A681A603B1C0A331B789AB23B1C10339A803C1C1E343B1C0C333A1C10321868111C0BF08FFB031C23803B1C1E331B88181CBD4609B090BD1C25002062
:400CC00094160100AC15010090B587B000AF786000237B613B1C133300221A703B1C08337A6812881A803B1C083300225A607B689A890F239A421FD13B1C083300229A7064
:400D00007B685B68181C00F071F9031C1A1C012313409BB2002B03D07223FF337B6102E0B9235B007B612B4B1B78DBB201229343DAB2284B1A701DE07B689A8913239A42A3
:400D400018D13B1C083302229A707B685B681B78012B03D1B8235B007B6103E03B1C133380221A701B4B1B78DBB201229343DAB2184B1A707B69002B24D07B681A1D7B68DB
:400D80003C1C1334101C00211A1C40230BF0BEFF031C23703B1C13331B78002B12D10E4B1B68002B08D00C4B1B6879693A1C0832081C111C984705E0084B1B687A684C20A2
:400DC000111C98473B1C13331B78181CBD4607B090BDC04627250020200400201425002080B500AF064B00221A70064B00221A70054B00221A7000F009F8BD4680BDC0465C
:400E000027250020202500202625002080B500AF00F05AFBFFF78EFEBD4680BD90B585B000AF78603B1C0E3301221A80194B1B78002B04D1FFF7D4FF164B01221A707B6884
:400E4000002B1FD0144B7A681A603C1C0E34134A134B101C191C172201F0C4FB031C23803B1C0E331B88002B0CD10E4B01221A703C1C0E340C4B181C262115220BF012FF44
:400E8000031C23803B1C0E331B88181CBD4605B090BDC04628040020142500200D120000300400201C2500209416010080B500AF01F084FB01F06CFB024B00221A70BD462A
:400EC00080BDC0461C25002090B585B000AF021CFB1D1A70294B1B78042B42D1284B1B78DBB21A1C042313403BD1FB1D1B78002B0BD1244B1E221A82224B5B6820221A80C4
:400F0000204B5B6830225A8010E0FB1D1B78012B0CD11C4B96221A821A4B5B68C822D2001A80184B5B688022D2015A80164BFA1D12781A703C1C0E34124B181C0AF000F95B
:400F4000031C23803B1C0E331B88002B08D10C4B1B78DBB204221343DAB2094B1A7005E004E03B1C0E33832252001A803B1C0E331B88181CBD4605B090BDC0461C25002046
:400F800027250020240100202625002080B584B000AF78600A1CFB1C1A700023BB60BB68002B20D07B689A79BB681A703B1C0F3300221A7012E03B1C0F331B780133BA6886
:400FC000D3183A1C0F32127879688A5C1A703B1C0F331A783B1C0F3301321A703B1C0F331B78052BE7D9BD4604B080BD80B582B000AF78607B681B781A1C7B6801331B78BF
:401000001B029BB213439BB2181CBD4602B080BD90B585B000AF78603B1C0F3300221A707B689A890B239A4237D17B681A1D7B683C1C0F34101C00211A1C40230BF066FE42
:40104000031C23703B1C0F331B78002B1DD17B685B68181CFFF7CAFF031C1A1C022313409BB2002B08D0104B1B68822251007A68081C111C984708E00B4B1B680622111CC8
:40108000FF317A68081C111C9847084B1B78DBB201229343DAB2054B1A703B1C0F331B78181CBD4605B090BD142500202725002090B585B000AF78603C1C0F347B68181C3F
:4010C000FFF7A6FF031C23703B1C0F331B78002B0ED11C4B1B78DBB21A1C0123134007D03C1C0F347B68181CFFF7EEFD031C2370144B1B78DBB21A1C012313401FD13B1CAA
:401100000F331B78002B16D03B1C083312229A707B689A893B1C08331A803B1C08333A1C0F321278DA707B683A1C08321868111C0BF02CF903E07B6818680BF08FF9BD46BE
:4011400005B090BD2725002080B582B000AF7860BD4602B080BDC04680B500AF034B00225A70024B00221A70BD4680BD2425002080B582B000AF7860BD4602B080BDC04675
:4011800080B500AFBD4680BD80B584B000AF78603B1C0E3300221A707B689B79002B1CD13B1C0F3300221A7012E03B1C0F331B787A68D35C002B04D03B1C0E3301221A7010
:4011C0000BE03B1C0F331A783B1C0F3301321A703B1C0F331B78052BE7D93B1C0E331B78181CBD4604B080BD80B582B000AF021CBB1D1A80BD4602B080BDC04680B582B00F
:4012000000AF7860BD4602B080BDC04680B584B000AF021C3960FB1D1A709D4B1B78DBB201221343DAB29A4B1A70FB1D1B78712B00D911E19A00974BD3181B689F463B1C0A
:401240000C3307221A703B1C0C3300225A703B1C0C33181C02F073FC3B1C0C3307221A703B1C0C3301225A703B1C0C33181C02F066FC894B1B68181CFFF786FF031C002B95
:4012800011D0854B1B68181C01F086F9824B1B68181C0021FFF77AFE7F4B1B68181C0121FFF774FE19E07D4B1A787D4B1A707D4B1A787B4B5A707C4B1A78794B9A70784BBF
:4012C000181C01F069F9764B181C0021FFF75EFE734B181C0121FFF759FE032009F0F2FD724B04221A70B8E03B68181CFFF740FFB3E03B681A786E4B1A70AEE0644B1B78A7
:40130000DBB21A1C202313400ED16A4B1B78102B02D1684B0522DA70674B1A78654B101C191C09F0D7FE98E097E03B68181CFFF765FF92E03B68181CFFF760FF5B4B022250
:401340001A708AE0594B04221A7086E0574B1B78022B34D04E4B1B78DBB21A1C012313402DD04B4B1B78DBB21A1C042313400BD04E4B03221A70464B1B78DBB204229343C0
:40138000DAB2434B1A701AE0414B1B78DBB21A1C082313400BD0454B04221A703C4B1B78DBB208229343DAB2394B1A7007E03F4B1B78032B03D13D4B04221A704DE04CE03C
:4013C0003B681B88181CFFF70FFF46E03A4A3B68111C1A1C0223081C111C1A1C01F0C3F8354B1B789A00354BD318354A111C1A1C0423081C111C1A1C01F0B5F8FFF7C0FE6D
:401400002BE0FFF7A9FE28E03B685B88162B05D83B1C0E333A6852881A8003E03B1C0E3317221A803B683A1C0E321288198800230904090C1B0C1B040B43181C111C0AF0B4
:40144000B1FF0AE03B68181CFFF732FE05E03B68181CFFF779FE00E0C0460D4B1B78DBB21A1C112313400FD0094B1B78DBB201229343DAB2064B1A70124B1B68FA1D11785E
:401480003A68081C111C9847BD4604B080BDC04627250020001A0100400100207CF1FF0F380100207DF1FF0F7BF1FF0F1C250020202500209C01002024250020801601002B
:4014C000182500201425002080B500AFBD4680BD80B500AF074B02221A60074BC02212061A60064B00221A60054B03221A60BD4680BDC046CC100020000030400400304076
:40150000080F304080B500AF054B054A1168054A12680A43802109010A431A60BD4680BD04003040CC10002080B500AF064B1B78002B04D1FFF7CCFF034B01221A70FFF776
:40154000E1FFBD4680BDC046C810002080B500AF064B1B78002B04D100F00AF8034B01221A7000F0E7F8BD4680BDC046D010002090B585B000AF0F20032100F065FC544B17
:401580000F20191C00F03AFC524B01221A60524B514A1168514A1268002A01DA504A00E0504A0A431A60504B504A1A60504B514A1A60514B00221A60504B514A1A60514BDE
:4015C0004F4A1A60504B504A1268802149020A431A604E4B00221A604D4B00221A604D4B01221A604C4B1B687B607A684B4B13407B607B688022920513437B607B680122EA
:4016000093437B60444B7A681A600023FB6058E00022DC239B0113407B60FB689B00404A9B187A681A600022012313400AD0374B364A1168FA680120041C9440221C92B2EF
:401640000A431A600022022313400AD0304B304A1168FA680120041C9440221C92B20A431A60002280239B00134003D080235B00BB6002E080235B01BB60002280235B0046
:40168000134005D1274BFA6852000021D15204E0244BFA6852000021D152BB68224A53438022D2009B18002B01DA204C1B19DB129BB219B21E4BFA689200D150FB68013340
:4016C000FB60FB68002BA3D0BD4605B090BDC0460919000020003A4000003A4080033A40C0021051C002005104003A408C000A8018003A400000FF071C003A4010003A40CE
:401700000400040014003A4000033A4028023A4038023A4018023A4030003A40FFFFFFDF80003A402C25002010270000FF0700002825002080B500AF0A4B1B68002B0EDB3F
:40174000C046094B1B68002BFBDB064B054A1268802109060A431A600A2000F00DFCBD4680BDC04600003A4008023A4080B500AF034B034A1268520052081A60BD4680BD34
:4017800000003A4080B500AF024B01221A60BD4680BDC04624003A4080B500AFBD4680BD80B584B000AF78600023FB607A680323134011D00B4B1A6801231340FB60FB6822
:4017C000002B03D17A6802231340F3D1FB68002B02D0044B01221A60FB68181CBD4604B080BDC04610023A4080B584B000AF78607B68002B02D0002000F090FB7B68002BEA
:4018000008D17B689B00084A9B181B681B041B0CFB6001E00023FB60FB689BB21BB2181CBD4604B080BDC04680013A4080B500AF1A4B1A4A1268802109060A431A60184B22
:401840001B68002B24DA174B1A6880235B02134003D0154B03221A7002E0134B01221A70FFF79AFFFFF782FF0D4B1A6880235B03134010D00A4B0A4A11680C4A0A401A6066
:40188000094B1B7804221343DAB2074B1A7002E0054B00221A70BD4680BDC04630003A4000003A4004003A40D4100020FFFFEFFF80B500AF114B114A1268520052081A606C
:4018C0000F4B1B78002B16D00D4B1B781A1C0423134006D00B4B0B4A1268802149030A431A60FFF727FF064B1B781A1C0223134001D0FFF747FFBD4680BDC04630003A40F5
:40190000D410002000003A4080B582B000AF044B1B687B60024B7A681A60BD4602B080BD10023A40000000000230800803D00138FDD1C046C046C0467047EFF3108072B648
:40194000704780F31088704780B500AF0B4B0B4A126801218A431A60094B094A126830218A4310210A431A60054B054A126807218A4301210A431A60BD4680BD00F02E40B0
:4019800000FF2E4080B500AF0E4B0E4A126802218A431A600C4B0C4A126807218A4302210A431A60084B084A126830218A4320210A431A60034B034A126801210A431A60F8
:4019C000BD4680BD00F02E4000FF2E4090B585B000AF78603C1C0F34FFF7AFFF031C2370094B796807220A40D104074A1068074A02400A431A603B1C0F331B78181CFFF7F4
:401A0000A0FFBD4605B090BD00010B40FFFFC7FF80B584B000AF78600023FB60154B154A126801210A431A60134B144A1A60144B134A1268802109020A431A607B68002B75
:401A400013D01023FB600DE0012000F095FA00F019F8031C002B02D00023FB6005E07B68013B7B607B68002BEED1FB68181CBD4604B080BD60F02E4078002E4002200000D0
:401A800010002E4080B500AF034B1A6801231340181CBD4680BDC0460C002E4080B500AFFFF752FF044B044A1268802109060A431A60BD4680BDC04600F02E4080B584B0C3
:401AC00000AF78600C4B1A6801231340FB607B68002B02D0012B03D005E0FFF735FF06E0FFF750FF03E0002000F018FAC046FB68181CBD4604B080BD00F02E4090B583B02F
:401B000000AFFC1DFFF719FF031C2370074B074A1268C02109020A431A60FB1D1B78181CFFF70FFFBD4603B090BDC04600010B4080B500AF054B1A68C0231B02134001D03B
:401B4000012300E00023181CBD4680BD00010B4090B583B000AFFC1DFFF7EFFE031C23700C4B0C4A11680C4A0A408021C9010A431A60084B074A1168074A0A40802109024D
:401B80000A431A60FB1D1B78181CFFF7DAFEBD4603B090BD00010B40FF3FFFFF80B582B000AF78607B68022B02D9002000F0B6F9054B1A687B68DB000133DA400123134039
:401BC000181CBD4602B080BD10020B4080B584B000AF786039607B68022B02D9002000F09DF97B68181CFFF7D9FF031C002B18D10D4B1B687A68D2000321081C9040021C6B
:401C0000D2431340FB603A6803231A407B68DB00111C99400B1CFA681343FB60024BFA681A60BD4604B080BD0C020B4080B584B000AF786039607B68002B02D07B68012BD3
:401C400001D1012300E00023002B02D1002000F065F97B68181CFFF7A1FF031C002B18D10D4B1B687A68D20002320121081C9040021CD2431340FB607B68DB0002333A68D0
:401C8000111C99400B1CFA681343FB60024BFA681A60BD4604B080BD0C020B4080B582B000AF7860154B154A11687A680A431A607A680123134006D0C0460020FFF76EFFE7
:401CC000031C002BF9D07A6880235B00134006D0C0460120FFF762FF031C002BF9D07A6880235B02134006D0C0460220FFF756FF031C002BF9D0BD4602B080BD10020B4057
:401D000080B584B000AF786039607B68002B02D07B68012B01D1012300E00023002B02D1002000F0FBF8174B1B689B0F9B0701D1C92300E05D23181C00F01EF9124B1B68C7
:401D4000FB607B681B01114A111C99400B1CDA43FB681340FB600C4B7A68120139689140FA680A431A60074B1B689B0F9B0701D1432300E01F23181C00F0FEF8BD4604B020
:401D800080BDC0460C020B4008020B40FFFF000090B585B000AF78603C1C0B34FFF7CDFD031C2370FFF7C4FE031C002B04D00123FB60FFF7CDFE01E00023FB607A680C4B7C
:401DC00013407B600B4B0B4A11680B4A11407A680A431A60FB68012B01D1FFF78FFE3B1C0B331B78181CFFF7ACFDBD4605B090BD0404040010020B40FBFBFBFF80B584B09C
:401E000000AF021C3960FB1D1A7080239B05FB60FB1D1B781F2B02D9002000F07FF8FB1D1B7810339B00FA68D3181B68BB60FB1D1B7810339B00FA68D3183A681A60BB681C
:401E4000181CBD4604B080BD90B587B000AF0A1CFB1D011C1970BB1D1A70BB1D1B78032B02D9002000F05AF8FB1D1B781F2B02D9002000F053F8FB1D1A7803231340DB00CA
:401E800006337B613C1C1334FFF757FD031C2370FB1D1B789B08DBB29B0014495B181B68FB607B690322111C99400B1CDA43FB681340FB60BB1D1A787B69111C99400B1C6F
:401EC000FA681343FB60FB1D1B789B08DBB29B00064A9B18FA681A603B1C13331B78181CFFF72FFDBD4607B090BDC04600E400E080B582B000AF021CFB1D1A70064BFA1DE5
:401F000011781F220A400121081C9040021C1A60BD4602B080BDC04600E100E080B582B000AF021CFB1D1A7001BEBD4602B080BD80B582B000AF786008E00C4B1B68181CBB
:401F4000FFF7F2FC7B680A4A9B187B607A6880231B029A42F1D8074B1B687A685343181CFFF7E2FCBD4602B080BDC046AC0100200080FFFFA401002080B582B000AF021CE0
:401F8000BB1D1A80BB1D1B88044A12785343181CFFF7CAFCBD4602B080BDC046A801002090B583B000AFFC1DFFF7C7FC031C2370074B074A126804218A431A6030BFFB1DDA
:401FC0001B78181CFFF7BDFCBD4603B090BDC04610ED00E090B583B000AFFC1DFFF7ADFC031C2370114B114A1268520052081A600F4B104A128892B21A600F4B0E4A126865
:4020000004210A431A600D4B1B683B600220FFF7DDFC30BF094B3A681A60FB1D1B78181CFFF78FFCBD4603B090BDC04600000B400C000B4052F1FF0F10ED00E000010B4069
:4020400090B583B000AFFC1DFFF777FC031C2370114B114A1268802109060A431A600F4B0F4A128892B21A600E4B0E4A126804210A431A600C4B0C4A1268FF218A43F12115
:402080000A431A6030BFFB1D1B78181CFFF759FCBD4603B090BDC04600000B400C000B4050F1FF0F10ED00E02C000B4080B500AF104B8022D2041A600E4B0E4A12681A601C
:4020C000002000F04FF80B4B0A4A12681A600A4B0C221A60012000F0A5F8084B31221A60074B181C00F058F8064B181C00F062F8BD4680BD000120402401204028012040DC
:40210000FFFF00003075000090B583B000AFFC1DFFF713FC031C2370084B084A126801210A431A60FB1D1B78181CFFF70AFC0120182100F059F8BD4603B090BD0000204024
:4021400080B500AF064B1B78002B04D1FFF7AEFF034B01221A70FFF7D7FFBD4680BDC046D810002080B582B000AF7860034B7A681204120C1A60BD4602B080BD08012040B8
:4021800080B500AF034B1B681B041B0C181CBD4680BDC0460801204080B582B000AF7860034B7A681204120C1A60BD4602B080BD1401204080B582B000AF7860034B7A68F0
:4021C0001204120C1A60BD4602B080BD0C01204080B500AF034B1B681B041B0C181CBD4680BDC0460C01204090B585B000AF786039603C1C0F34FFF7A0FB031C2370084B25
:402200003A687968081C9040021C1A603B1C0F331B78181CFFF795FBBD4605B090BDC0460800204080B582B000AF7860024B7A681A60BD4602B080BD3801204080B582B0AD
:4022400000AF78600A1CBB1C1A80BB1C1A887B681A60BD4602B080BD80B582B000AF78600A1CBB1C1A80BB1C1A887B681A60BD4602B080BD80B582B000AF021CBB1D1A8085
:40228000BB1D1B88181CFFF777FEBD4602B080BD80B500AF00F068F8BD4680BD80B500AF00F06CF8BD4680BD80B500AF00F066F8044B181C00F024F8032000F02DF8BD462A
:4022C00080BDC0469123000080B500AF024B181C00F004F8BD4680BD9123000080B582B000AF786000F04AF87B68181C00F008F8032000F011F800F037F8BD4602B080BD4E
:4023000080B582B000AF7860024B7A681A67BD4602B080BD0000002090B585B000AF021CFB1D1A700623FB603C1C0B34FFF705FB031C23700B4B0B4A1268C021101C884344
:40234000011CFA1D1078FA68041C9440221C0A431A603B1C0B331B78181CFFF7F2FABD4605B090BD0CE400E080B500AF024B802252011A60BD4680BD00E100E080B500AFAE
:40238000024B802252011A60BD4680BD80E100E080B500AF0FF0CAF8BD4680BD002934D00123002210B488422CD301242407A14204D2814202D209011B01F8E7E400A1428F
:4023C00004D2814202D249005B00F8E7884201D3401A1A434C08A04202D3001B5C0822438C08A04202D3001B9C082243CC08A04202D3001BDC082243002803D01B0901D05B
:402400000909E3E7101C10BC7047002801D00020C04307B4024802A14018029003BDC046D90000000029F0D003B5FFF7B9FF0EBC4243891A1847C046002941D010B4041C00
:402440004C40A44601230022002900D54942002800D5404288422CD301242407A14204D2814202D209011B01F8E7E400A14204D2814202D249005B00F8E7884201D3401A7B
:402480001A434C08A04202D3001B5C0822438C08A04202D3001B9C082243CC08A04202D3001BDC082243002803D01B0901D00909E3E7101C6446002C00D5404210BC7047CA
:4024C000002806D003DB0020C043400801E08020000607B4024802A14018029003BDC046190000000029EBD003B5FFF7A7FF0EBC4243891A1847C0467047C04670B50E4BD3
:402500000E4D0024ED1AAD101E1CAC4204D0A300F35898470134F8E70FF056FB084B094D0024ED1AAD101E1CAC4204D0A300F35898470134F8E770BDD41B0100D41B0100B0
:40254000D41B0100DC1B010030B50023934208D0C55C0133CC18013C2478A542F6D0281B00E0002030BD10B50023934203D0CC5CC4540133F9E710BD031C8218934202D0BE
:4025800019700133FAE7704710B501F063FA10BD10B500F0EFF810BD10B50749044609780220002907D1204601F082FA002802D1204608F071FD10BDC202002010B506F074
:4025C000FFF801F047FA01F06BFA01F088FA00F0DBF800F0E5F802490020087010BD0000B0010020F7B51F4E0024307815460F46002804D00824B76075802046FEBD002FBF
:4026000000D1012401F026FA0098002805D0172D03D301204002854201D90124EBE7002CE9D12946384600F023F80400E3D1706800F01CF80400DED1706800F015F80400EB
:40264000D9D101F00FFA0400D5D1009806F0A2F80400D0D106F0B8F80400CCD101203070C9E70000B00100200020704700207047F8B50D4607460026FFF726FEFFF70EFE79
:4026800000F046FA040065D100F0D2FB040061D13449084600F0BEFD0404240C5AD1A80705D0A807800F0421081A401985B2172D02D968002E3886B22B48301881B23846BA
:4026C00001F0ACF8040045D1284F03460246002825D127495E008E5B294610318E4207D99000C01941800221521C4170D2B215E08E420BD10020787690001D49C0194680BA
:40270000891FC95C891C4170012012E0052A06D1164806461436418302207071012014495E008E5B9100C9194E80114EB61FF65C4E705B1C521CDBB2D2B2062BC7D30B4844
:4027400000F084F8002C05D100F09CF807490120891E087000F0EEF9002C01D0FF20F8BD0020F8BDB9270000940C0000BE010020061C010010B503480078012801D100F065
:40278000DDFE10BDBC01002010B500F0B3FB002803D100F0D3F9002800D0FF2010BD000010B500F0C3FB00F067FD02490020087010BD0000BC0100207047000010B5011FA5
:4027C0000878034A8000105800F0C8FF10BD0000DC10002010B5044604498000085800F02BFF002801D00470001D10BDDC10002038B5044692B2C9B2684600F043FF024AB9
:40280000A1000098505038BDDC10002070B50B49064600204C6805466178002908D06188B14202D32078FFF7D5FF002804D1241D6D1CEDB2082DEFD370BD0000E001002062
:4028400010B5002801D0FFF7B9FF10BD70B50B4E0446002570606178002905D062882078121D0023FFF7C4FF6D1C241DEDB2082DF1D3024800F0C4FFB06070BDE001002061
:40288000002070471CB5002469460C70142001902346054A05480CF00DFA04480068401C00D1FF2420461CBD01290000EC0100203EB5124A0146FF2000230124126800293A
:4028C0000DD0012914D0042908D104206946009308814B8110460CF0E8F980B23EBD6846009304814381694610460CF0D9F9F4E768460093048143816946EBE7EC0100207C
:4029000070B54589046841680089030000F026F806240408081D2124002004F011FF1BE0022908D0C8B22A4621460AF04DFC2046FFF786FF10E002202A4621460AF044FC9B
:402940002946204600F018F806E000200BF09EFE02E020460CF034FA002070BD30B47446641E2578641CAB4200D21D46635D5B00E31830BC18470000014B0022DB68184756
:40298000F001002070B5448905680089022803D0032809D0FF2070BD2246094C0023A46829460120A04708E0FFF7EEFD241DA2B200232946022005F0D0FD002070BD00004D
:4029C000F001002070477047024800214160018041807047F001002070B50C46002186B016460391012802D0022859D116E003A9012005F00AFE01281BD1039D32462146E1
:402A00002846FFF7B0FD0095287801900220694608814E816846FFF7B5FF41E0214D002B686809D0049004A9022005F0EEFD01281DD0022006B070BD002812D0298840186A
:402A40002146FFF790FD28880024801980B228806988091D884206D12C801348FFF792FF03E00320E6E788421AD96C6018E004986860E278A378110219430B4A69800023E2
:402A80001060E3565360032313815181A1788170E178C1706178417021780170042028800020C7E7F0010020FC1000203EB515460C46022803D004280CD000203EBD0091DE
:402AC000019002206946088107484A8100680CF0ECF807E00AF078FB044B0022DB6829462046984701203EBDEC010020F0010020014AD16090607047F001002003480168AB
:402B00008068081A0A214843000970470811002010B5FFF7C9FB542204490548FFF723FD03490120C870002010BD0000161C01005813002010B5FFF7ABFB10BD00207047E2
:402B400070B5134C2368002B08D0207B1149C20705D04008400020738868A08070BD88680B4AA18880B29268814203D90A4D691A091802E0814202D2411A5118A160A080C6
:402B8000A0689842EAD300F015F80CF0ABF870BD08110020C0102E40FFFF000010B508461946FFF7A5FF10BD704710B5FFF77EFF10BD000003480021016041608160C16033
:402BC000704700000811002010B502000DD0FFF7F1FF074C0321207B0843207310010A21FFF720FC2060002010BDFF2010BD00000811002000B504480A21806848430209E1
:402C0000FFF7D8FF104600BD081100200248007B8007C00F704700000811002070B558490868002802DA574B01221A70022290430860554800695249C00B4031096A0842EE
:402C40006CD0012000F092FA4F4850497C30FFF703FB4B480E216C30FFF7FEFA4A4820218430FFF7F9FA484814219C30FFF7F4FA4548FF21C131A430FFF7EEFA4248FF217F
:402C80002F31B030FFF7E8FA3F484149BC30FFF7E3FA3D483F49AC30FFF7DEFA3D493A48491CB430FFF7D8FA37483B49B830FFF7D3FA35483949CC30FFF7CEFA32483849FA
:402CC0000830FFF7C9FA30483649A830FFF7C4FA2D4835498830FFF7BFFA2B4833498C30FFF7BAFA28481921C9029030FFF7B4FA2F4D287E697E0C020443A87FE97F2D4A74
:402D0000090201432C48914201D1072C08D035229201914208D1042C05D005E0FF2070BD0146042400E0014617486C30FFF794FA154821467430FFF78FFAA87EE97E0902C0
:402D4000014301204003814201D0002900D11B490D487830FFF780FA2A7F687F010218481143814204D01748814201D0052901D113490A3904488030FFF76EFA002070BD35
:402D800000F02E400002002000002E4055650000320300002F3F00003102000010520000EC160000FA12000031D000003AE30000C0F0FF0F580B0000580D0000022000005F
:402DC0000F0F00000505000070B50646581C80B245086D00002408E0304600F07FF81055000A1119A41C4870A4B2AC42F4D3D80705D0D0182038D15CC47FD454C17770BDE4
:402E000030B50A4C002100195B1E07E0541864782502545C2C430480891C89B29942F5DB994201D1515C018030BD000000102E4010B5FF2000F09AF90F49FF2048700E48EE
:402E40001021801D41800121417001700A490020C91C4870FFF7E2FE04000AD100F0DEF807210648FFF7EAF9044807211830FFF7E5F9204610BD000000020020CC112E4075
:402E800030B504465B1C1804450C002308E0204600F024F8241D59005B1CA4B250529BB2AB42F4D330BD000070B500210A4D5B1E0AE0541864782602545C344346193480E1
:402EC000001D891C80B289B29942F2DB994202D1515C4019018070BD00102E40014940180088704700102E40014A80180180704700102E4010B50B490020487000F08EF8BC
:402F0000002000F059F9002000F046F907210648FFF794F9044807211830FFF78FF9002010BD000003020020CC112E4010B506480078012803D102210448FFF78DF9024992
:402F40000020C91E087010BD0302002070F02E4010B50B46062812D006DC01280CD0032801D1FFF7C7FF10BD0A28FCD00B28FAD105480078107010BDFFF75AFF10BD1146FE
:402F8000184600F035F910BD06020020F8B5204DAC6A0127A0071F4E002816DA307806280ED1286A384328621B480069F903084381B219481030FFF74FF9042000F0D6F8C9
:402FC000134802212830FFF739F9E00711D0062000F0CCF80F49FF20C91E48707078002802D1686B38436863094801212830FFF725F9E0050BD53078042802D1052000F0BF
:40300000B5F80348FF2101312830FFF717F9F8BD40F02E400302002000002E4010B503212348FFF719F90120FFF724F920483038406A204C80076178800F890001431C486C
:403040000C38FFF709F96078002808D0401E022181401820FFF746FAC000083800E0B82081B21548FFF7F8F81348032109021438FFF7F2F810481149B830FFF7EDF84521CD
:4030800089010F48FFF7E8F80D480321001FFFF7E3F80C490C48FFF7DFF80B480B496038FFF7DAF8084801218838FFF7D5F810BD70F02E4006020020D8102E40908900004C
:4030C000041E2E40FF0F000058122E40209000000849087806280BD148780749002803D1486B400840004863C86A01221043C862704700000302002040F02E4001480078D0
:40310000704700000302002002484078022800D0012070470002002000B50300FFF71EFC080D050D0B070507090D012000BD032000BD042000BD022000BDFF2000BD000040
:40314000074A9168D26889B2064B92B2994204D105498A4201D1012100E000210170704780002E4033D000003FE3000010B50446FFF794F8072C01D9FF2C01D102480470A8
:40318000FFF786F810BD00000302002001494870704700000002002010B5064A012805D01921C9021046FFF757F810BD1D21C902F8E7000090002E4010B50A4A141D0128F5
:4031C00008D009491046FFF747F808492046FFF743F810BD04491046891CFFF73DF80349491DF3E788002E4031D000003AE300000078074AFF2803D04C2804D9553803E0CE
:403200001078087070474F3808701070704700000202002010B50F4A002313600E4A13600E4B18600E4801600E49012008600E490860000290600E490C4808600D49143038
:403240000860FF381538506000F0BEF800F0CCF9002010BD240200200C020020380200203C0200202802002018020020181200201C0200203002002000207047014610B5FD
:403280000020002910D0094B1A689C685118A14209D25868196080188A0704D08A07920F891A091D196010BD002010BD0C020020F8B50024164E671E321F3D4631681368B0
:4032C00006E01422624310328A58521C1BD0641C9C42F6D36A1C14D02C461422544322460C3288500C214843FFF7C8FF3168002808510AD031680020103408517068401C4F
:4033000070602846F8BD2546E4E73846F8BD00001C020020F3B50026F64381B000281BDB1E490968884217D80299002914D01B4F142204463F1D5443254639681035485995
:40334000401C09D0FEF7AAFF38682F1F4159C359994203DBFEF79CFF3046FEBD214608310091465801590C20704308180C220299FFF7F9F80948761C001D0068C159B1420F
:4033800000D100260549009A091D865008684159491C4151FEF77CFF0020FEBD18020020002803DB07490968884202D90020C043704704491422091D096850431030085819
:4033C0007047000018020020F0B500200D4A451E0346171F50600FE014260146714314680E1DA3510C461668083433511668083435511468401C635039688842ECD30020CA
:40340000F0BD00001C020020F3B50026F64381B0002841DB2349096888423DD8029900293AD0204F142204463F1D54432546396810354859401C2FD0FEF730FF386841590E
:4034400000292BD0211D009146580C21005971430F46C1190C220298FFF785F811480021001D0068761C00590C34C0190160416081600C48001D00680159B14200D1002614
:403480000849009A091D865008684159491E4151FEF7FEFE0020FEBD3046FEBDFEF7F8FEFAE7000018020020FEB504460D4600201E49089E0860471E009001900290002CF6
:4034C00011D0486885420ED2002A0CD0002E0AD0642E08D808460C3001681C2068430C18207A002801D03846FEBD0120226020721846FFF7DDFE6060401C13D06681A681D9
:403500000A4827610C3067610179A94200D205710021684601810A462846029B00F040F82846FEBD00202072DDE700002402002038B50124009400F039F838BDFEB50027B1
:40354000164EFF433D4600240EE01C20316860430818017A002906D04068FFF721FF002801D0254603E0641C3079A042EDDA681C12D01C2130684D434419FEF78FFE6946CE
:403580006068FFF741FF0546FEF782FE002DD9D1216868468847D5E7FEBD00003002002038B50024009400F001F838BD1FB500220C49541E0A60002811DB496888420ED888
:4035C00008491C220C31096850430818406801A9FFF7A0FE401C02D0002004B010BD2046FBE7000024020020F0B50021114A4D1E174611710C3F0B46BD6016E008461C24F0
:4036000060431668041D355114680646235014680836A3551468361DA353044616680A34335318301468491C255078688142E5D30020F0BD3002002038B5002100910028A5
:4036400011DB0F49097888420DDA0D4D04010C3529680859002807D0201D0818694600F05FF9002801D0002038BDFEF717FE28680F34015D491E0155FEF70AFE009838BD5F
:4036800040020020F7B582B00025ED43029800240E460560002A49D0002E47D02D48D21C02402D48174601780C30006805E022018258002A0FD0641CE4B28C42F7D3691CC4
:4036C0003ED02C01211D40180191314600F016F900282BD101E02546F1E71F480C30016820460C300F521C480C30016820460E300E5419480C30016820460F300E54384600
:40370000704300F0ADF814490C310968002808510CD00024009011E00F480C30016801980818009900F017F9002802D0012005B0F0BD0098C019641CE4B20090B442EBD39E
:403740000298054905600C310879401C08710020EDE70000FCFF000040020020F8B50D4600216A468C461180002839DB23490978884235DA214B04010C3319680A59002A24
:403780002ED020460C300B5A801C0E5C184670438018954224D3854222D2002006E007465F43BF18AF4206D0401CC0B2B042F6D36046002814D0114E271DC8190C366A4688
:4037C000294600F0F2F800280AD168460088012808D030682946C01900F0BDF8002803D00120F8BD0020F8BDFEF758FD30680F34015D491C0155FEF74BFDF3E74002002064
:4038000003460020002B06D0034A5168906852884018511A198070474002002070B5002400F0DCF80D4E002132460C3271600EE0200113680546195013680C355953AD1C52
:4038400013680F3059551368641C1954E4B230788442EDD31171002070BD000040020020014610B5002000290CD0C91C064B8A08596892005C888A18A24202D898685A6039
:40388000401810BD002010BD40020020F8B5002827DB19490978884223DA174C05010C342168485900281CD028460C30085A009028460E300E5C401C0E5420682F1DC0190F
:4038C00000F064F800280CD12068002445590EE0094829460C300068C01900F03CF8002801D00120F8BD00982D18641CE4B2B442EED30020F8BD00004002002030B50D46F6
:4039000004000BD0A800FFF7ABFF6060002805D000202570C0436080002030BD012030BD70B50D46040005D0002D03D00220205E002801DA012070BDFEF7B0FC0221615E2B
:4039400060688900405828606088401E6080FEF79FFC002070BD70B50D46040007D0002D05D002212078615E401E814201DB012070BDFEF793FC6088401C00B26080616896
:4039800080000D50FEF784FC002070BD10B5040009D0227800216068FEF7EEFD0020C0436080002010BD012010BDF0B500231D46002802D00224045F0AE00120F0BD466871
:4039C0009F00F6598E4201D1012503E05B1CDBB29C42F4DA15700020F0BD0000054B11221A70054A1180064A04491160054908607047000040020020420200204812002084
:403A00004C020020480200200148007870470000540200207CB505460024FEF7B5FDA8796946087000A8062229460130FEF79BFD0021684604F0E2F80C2804D0072804D08C
:403A40001F2804D004E0022402E0042400E0272420467CBD10B500F0CDF8FFF74FFBFFF75BFB10BD10B503240BF044FE002810D10BF0E8FD00280CD104F016FE002808D15A
:403A800000F07AFA002804D104F012FB002800D10024024900200870204610BD54020020FF20024A00211170704700005402002070B50025044600280ED0A07901280BD802
:403AC000FEF762FDA0790028204602D002F0E6FD03E002F09BFD00E00125284670BD704710B5FFF70BFB012801D1FFF70DFB10BD38B504460120002C20D0617801291DD86C
:403B000000290BD0FF25E535FEF73EFD2846FFF7E5F9C0B22070072803D00EE0FF25CD35F2E70020694608706846FFF709FB69460878012801D108202070002038BD70B5D5
:403B400004460120002C1FD06178012902D92278092A19D8002906D0FF25E53520780726092803D003E0FF25CD35F7E72670FEF70BFD2078082808D00020FFF71DFB21783C
:403B80002846FFF7B1F9002070BD0120FFF714FB2670F4E770B50D46040001D0002000E00548002802D0012101F0AAFF2946204602F084FA70BD0000CC13002038B505461A
:403BC00000200446009022466946284600F06CFE0098002801D00BF06FFDA878214602F0B1F8A878214602F0A0F8641CE4B2052CE9D338BD38B5FFF781FA042819D0052829
:403C000017D006281AD0032842D007280AD100206946087002460120FFF79AF9FFF76EFA0128FBD138BDFEF7BBF9FFF767FA0128F8D0FFF763FA0128F5D138BD02F0EAF8C1
:403C400005E0FEF7ADF9FFF759FA012803D0FFF755FA0128F5D1A12424012046FFF73EF901220E4983079B0F0A70022BE5D149880029E2D0104301462046FFF735F920468D
:403C8000FFF72CF9410849002046FFF72DF938BD02F0C4F80120FFF769FA38BD5A020020F8B50646002402F00BFE0546304602F01FFE00210346012632468A4017461046D9
:403CC0002F401840002F03D0002801D1224394B2491CC9B20529EFD32046F8BD1CB50020694648706846FFF703FF01AA69460A20FFF72EF96946042008561CBD10B50C46AB
:403D000001F076F9002809D00179002906D0C1788078224602F080FA002010BD022010BD0148007870470000981300204030C07E002800D00120704700B500F001F800BDAC
:403D400088214843064940186030417F491CC9B24177052901D300214177C8B270470000AC13002013B501F043F904000BD001F09AFC002807D0214601AA0A310620FFF7D2
:403D8000E7F800201CBD02201CBD000010B50C4601F02EF900280AD001F085FC002806D0224604490A20FFF7D3F8002010BD022010BD000081130020F3B581B007460146F2
:403DC0000026029802F074FD0446002F01D0002500E0154D002D21D0284601F03FF9032C04D13946029802F08DFD06463846029901F09BFF032C06D0002C10D00121384600
:403E000001F01AFA03E03146384602F02FFF284601F05CFE0221284601F072FEFEBD3846029901F082FFFEBDCC13002070B50446002503F01DFB002801D00C2070BD207851
:403E4000611C02F0E3FAFF2802D01F25284670BD02F030FBFF2804D02178621C01F0DAFEF4E70725F2E710B503F002FB002801D00C2010BD02F0A2FA002010BD70B50D46AC
:403E8000044610210BF058FB1021601806460BF053FB334610221946204603F015FB102130460BF049FB02202870204604F058F870BD70B504464078217802028006850F33
:403EC000E0781143A67809050002090D0643084601F08EF8002812D0022D10D0032D0ED0002E08D00179092909D0002907D0214600F0A1F870BD0089002103F066FF20468D
:403F00000BF0DAFB70BD0020704770B50446002503F0AEFA002801D00C2070BD2078611C02F074FAFF2802D002F0B6F900E01F25284670BD10B504F0BBF800F0F6F80020F4
:403F400010BD10B5044600786178E2780843A17811430843217908436179084305D003F079FA002803D00C2010BD122010BD204602F094FB002010BD10B5044803F0E2FACB
:403F800002F094F900F004F8002010BD68130020F8B5114D00266E706E736E716E76AE76EE766E75AE70EE70AE712F46EE730120B03778723F2078719B20B87100F00AFA6D
:403FC0000024204601F036FB641C2406240EF8D03E72FE71AE73F8BDAC13002070B505460E46084602F06CFC0446304602F080FC0121A9400A46224001400A4301D00120C6
:4040000070BD002070BD10B50446084602F070FC0121A140014201D0012010BD002010BD10B5FFF76BF8032804D101F0F7FE0120FFF79CF810BD70B5044600790D46092871
:404040001CD000281AD020464030817E491C8176204601F03BFDA078FFF76EFE064602462946204600F00CF8002806D1A0783146FFF790FD28460BF01FFB70BD0846FAE7BB
:40408000F7B5054648780C468006870FC8788978000282B0014368468180284601F00EFB060007D021462846049A00F091FB304605B0F0BD384600F039FC0746034601AA83
:4040C0002946204600F0CAFA68468088231DC0B20090A878FF22049901F0AAFF684680883B46C2B2A878049902F054FBDFE770B5002500242846FFF7D3FD060010D030465A
:40410000E040C007C00F07D02146284601F001FE21462846FFF750FE641CE4B2052CEED36D1C2D062D0EE4D070BD10B502F0BEF8FFF72EFF0BF028FB002010BDF8B50024C8
:4041400000F081F80123012800D10124104F00203E4620360425082203E0002801D0002100E031460979002907D001290BD002290BD0114681402143CCB2401C0006000E9C
:40418000EBD07C70F8BD1C43F7E72C43F5E70000AC13002010B5FFF7D1FF10BD10B50B4681791943817103D08078114602F0B6FA10BD10B582798A43827102D1807802F0B8
:4041C000C5FA10BD70B5FF25D53502242846FEF785FE0C4A9178002901D0022906D1137852789A18282A01D9032402E0032900D101244105490DE00201432846FEF774FE84
:4042000070BD00005602002010B500F022F8002807D0012805D0032801D0042801D0002010BD012010BD014610B50020C90701D000F009F810BD014610B50020C90701D0E1
:4042400000F001F810BD10B52020FEF747FE000A10BD10B51820FEF741FE410501D5042010BD4007800F10BD38B5044640060CD5684601F0D9FD0220FFF78CFF072002F002
:4042800031F96846007801F03FF9200613D5FFF7E0FF01280FD1684601F0C6FD6846007800F09AFA072002F01DF9012001F076FC0220FFF76FFF38BD10B5034A0178117053
:4042C00002F01FF9002010BD5602002010B50446FFF7B9FF002801D00C2010BDA27B01211848002A827801D00A4301E05208520082706279012A0FD0C17849084900C17057
:40430000207901280CD06188208802F01DFF2080207904280BD00DE0C2780A43C270EFE7E01D02F0A3F90848808C208002E0E01D02F09CF9054920798870204602F0F0F878
:40434000002010BDAC130020581300205602002038B50478FFF777FF844201D10C2038BD002C18D0072069460870FFF74DFF012807D10121684600F08DF8012801D00920D3
:4043800038BD6846007802F0ADF8FFF71BFF02F0F7F8012010E0FFF737FF012806D1684601F042FD6846007800F04AFA072002F099F802F0D9F80220FFF7ECFE002038BD61
:4043C00010B5034A0178517002F080F9002010BD5602002038B568460BF004F9002801D01F2038BD01210098C90201804180002505714571857107214173857302F090F885
:40440000009C202200212046FEF7B6F825702A460021601CFEF7B0F8204602F072F8204602F054F900980BF047F9042200210248FEF7A2F8002038BD5602002003460848B5
:4044400000B5834209D8184600F0D2FD002804D00089984201D1012000BD002000BD0000FF0E0000074A9179491C8906890E917138220A4092014907090E1143084302495B
:4044800008407047AC130020FF0E0000C006C00E70470000F8B507460E4600240D4803E0002C01D0002500E005462979002905D0641C2406240EF3D00020F8BD204601F064
:4044C000B9F82E712046FFF7CDFF28813C700120F8BD0000CC13002010B503F029F80222002100F003F801F089FE10BD10B5094B40074907000F090F185A595A40185043E5
:40450000C0086421FDF78EFF002800D1012080B210BD00006A1C0100F7B53D20405C88B016460C46002829D030786946087200252046FFF7FBFB012800D00125204603A9E8
:4045400038300191009023460327A17E34332A46206A03F011F802A8089900900B46019120463A4603A9243002F090FF02466846007A3070204601F049F810460BB0F0BD17
:40458000FFB587B00C4605461078694608723D20005D1746002826D000262046FFF7C6FB012800D00126204603A93830019100902346A17E34333246206A02F0DDFF02A825
:4045C0000090291D019120462B1D03A924300A9A02F05CFF02006846007A388002D1204601F014F810460BB0F0BDF7B53C20405C88B015460C4600280CD028786946087288
:40460000002806D000262046FFF790FB012803D003E01F200BB0F0BD0126204603A938300191009023460327E17E34333246E06902F0A2FF02A8089900900B460191204655
:404640003A4603A9243002F053FF02466846007A2870204600F0E4FF1046DBE7FFB505463C20405C87B016460C46002810D0084601F024F801280BD03088694608830028C0
:4046800009D000272046FFF751FB012805D005E000200BB0F0BD0220FBE70127204602A93830019100902346E17E34333A46E06902F062FF06A80090291D019120462B1D11
:4046C00002A924300A9A02F013FF02466846008B30806846008BA870000AE870204600F09FFF1046D5E770B50D460446FFF71EFB01280AD0E87AA97A00020143A07801F081
:404700004DFC012808D0002070BD00222421204602F064FC242070BD28214C200155204600F09AFB282070BD002801D0002000E003484030C07F012800D000207047000024
:40474000CC1300200146002049070ED50021084B03E0002901D0002200E01A461279022A04D0491C0906090EF3D0704701207047CC1300200146002049070ED50021084B78
:4047800003E0002901D0002200E01A461279022A04D0491C0906090EF3D0704701207047CC13002010B5044680346068002803D00AF096FF0020606010BD403041707047B9
:4047C0004030817070474030017070470171704792001018C166704770B53C2501F0F8F8040004D020460021433001F091FB2946204600F0C0FB002C02D0A07801F07AF899
:4048000070BD000010B5002801D0002000E00348002802D0008903F01FFB10BDCC13002010B5002801D0002000E00448002804D00179072901D100F041F810BDCC1300206F
:4048400010B501F0C5F8002802D0807801F052F810BD00207047000070B50546008A00281ED010491122897A1140C90618D5294640314A8A098A521C4A4392B2D10800D118
:404880000121540801E0621A94B2A042FBD9FFF7BBF8012804D1298AA878224601F05CFC70BD00005813002000230B60052A04D292001018C26E0A60C366704738B5044640
:4048C00000200090A079002814D14020015D052901D00E290ED168460AF094FE002809D12046009902F062FB03481021C28A2046FFF754FC38BD00005813002010B50B467B
:4049000004460146184602F031F8002802D020460AF0DCFE10BD13B5044601AA11460620FEF716FB6846818861811CBD002800D10220704770470000F8B504462346401D74
:40494000543300909A1EA078911E01F07CFA25464035A88A298A8000FDF764FD401E81B2688A884203D96982A07801F062FF20460021433001F0CCFA8020FEF7AFFAE881CA
:4049800002F0D6FDE989891C8AB26179FFF7AEFD01F034FC02F0CCFD2A8A6179FFF7A6FD074601F01DFC688A00280BD0FF26F1363046FEF793FA0321090201433046FEF7F3
:4049C00093FA02E0002001F022FFFF206130FEF785FA6E8A002E0BD070431049FDF782FD0004000C01D0401C80B20D49488002E00B4800214180288A704381B2A07801F02D
:404A000073FE2837B9B2204602F0A2FBE98AA07801F0C2FDA07801F0ABF9F8BD710200005A0200207FB504468034616805460E46183108226846FDF796FD31462031082286
:404A400002A8FDF790FD102168460AF075FD6068102108300AF070FD60682B46083024331022694602F030FD7FBD10B504460821FFF79FFB10212046FFF79BFB2079052873
:404A80001FD006281DD008281AD12189002003F05BF9072020712046FFF748F9014620464030012913D00E21017000210176204600F02CFF2046FFF775FE2046FFF7CCFE93
:404AC00010BD20890122002103F022F9E1E70521EAE70000FFB581B01F4604460821FFF768FB10212046FFF764FB2079082803D0092804D0042203E00422012501E009222B
:404B00000025204600F0C6FD264600204036307022712046FFF746FE0398002D02D0012808D00BE001280AD120890022029903F0EFF804E02189029803F006F90127002036
:404B40003076012F04D0204600F0E0FE05B0F0BD02983073204602F06DFA054605480121C28A2046FFF71AFB002DEFD109202071ECE700005813002070B50C460546FFF7C5
:404B8000D5F8012809D108212846FFF712FB0023012221462846FFF79DFF70BD10B5044600F078FD2046FFF7FDFD00214034217010BD70B505461A24FFF7B8F8012809D19D
:404BC00008212846FFF7F5FA0023012221462846FFF780FF70BD0000F8B50446002000900E4668460AF00EFD002801D00D20F8BD8420005908212030009D00F0F4F920469D
:404C00000421383000F0EFF9002E02D1204600F07FFD2946204602F059F90E480821C28A2046FFF7BBFA204600F0D7FE25464035002808D0204600F023F8002801D00920A9
:404C400028700020F8BD08202870204600F03EFFF7E7000058130020014610B540310A460978082906D0092907D00A2901D100F091F810BD0B20107010BD00F001F810BD34
:404C800070B50446007925464035052805D0062803D008280FD00C2070BD03220621204602F09CF90D480821C28A2046FFF776FA1120287010E006202873204602F0BAF96D
:404CC0000646AA8A0A20424301212046FFF766FA002E01D109202071002070BD5813002038B504460020009068460AF08BFC002801D00D2038BD2046009D00F08BF9082045
:404D00002071204600F004FD2946204602F010F900213D2001550F2040210855204600F0D5FE002038BD00B5024600F0B3FC10214032117000BD10B50446FEF7F7FF01281C
:404D400009D04020005D112805D100231A4606212046FFF7BFFE10BD10B5FFF786FE10BD38B504460021684600910AF04BFC00280CD12046009902F052F905480821C28A17
:404D80002046FFF70BFA0D204034207038BD00005813002038B504460021684600910AF031FC002801D00D2038BD2046009902F02BF905480821C28A2046FFF7EFF90C20C1
:404DC00040342070002038BD5813002000787047F8B50025002801D0002400E01A4C002C28D0204600F05FFC002823D0207903281CD005281CD026464036B18AA07801F0CC
:404E000081FCB078012815D10021204601F0CBFD274680373868002802D00AF061FC3D600020B0702079072805D007E0042000E006202071F8BD2046FFF70EFD02212046A8
:404E400000F05EFEF8BD0000CC13002010B54C22115400F046F810BD10B50446FF21FFF7A8F909202071A07801F07CFC10BD000038B5FF216A461180002801D0002400E086
:404E8000064C002C08D011460620FEF761F8684601882046FFF73FFD38BD0000CC13002010B504468079002809D022214C200155FF212046FFF77DF9204600F012F810BDE1
:404EC00010B5037902464032002B03D01173092B02D003E0002100E02221117300F001F810BDFEB504460089002701902781207926464036002817D0012815D002280AD14B
:404F000012E002AA6946204601F01EFD002807D100980AF0DBFB204601F03EFD0028F0D02046FEF74BFEB776254680352868002802D00AF0D5FB2F606868002802D00AF038
:404F4000CFFB6F60317B002902D0019800F044F8A078002100F020FF2046FFF7BDFAA07801F006F8A07800F0C5FC0B20FFF712F900F004FCFEBD70B50E46054602F0D4FAA6
:404F8000044606702846FEF7D1FE014601204140204661700C3000F0A4FF002D10D02889608028464030C1782171002E10D169796171018AE180418A2181808A608107E0DB
:404FC0001820FDF78BFFC005C00F207100206080204602F062FE70BD0A4610B50146002002F052FF10BD10B50AF082F810BD000000B50146FFF74AFA002801D0002000E030
:405000000348002802D002898A4200D0002000BDCC13002038B5044680346068002806D168460AF0FFFA002801D100986060606838BD000010B5014600F040FB0128887866
:4050400002D0FEF77DFE10BD88214843024940186030007F10BD0000AC13002070B5054604464035A87F012811D1A1788820084A484380186030067F3046FEF7AFFF0028A2
:4050800005D10220A877A078314601F025F870BDAC13002010B50E4CE079002816D0FFF726F80C48827FC17F808B00F06FFB01280CD10020E07100F0C0FE0446AC20FDF76D
:4050C0000DFF010B02D0204600F00EFA10BD00005C140020AC13002070477047490510B5490F0B00FDF73AFC060704080C0C0F073E21FFF7ABFE10BD0821FFF7E1FE10BD41
:40510000FFF7EFFE10BDFFF7CBFE10BDF8B507460025002D01D0002600E0204E00F068FE3046403044890021418100F06BFE304600F0B9FA01282BD1A00702D52846FFF73D
:4051400047FEE00602D52846FFF792FEA00601D5FEF7CDFF600601D500F0CCFA200602D5284600F01DF8600702D5284600F0FEF9380402D52846FFF753FB780402D5284681
:40518000FFF740FBE00703D021463046FFF7A6FF6D1C2D062D0EBCD0F8BD0000CC130020F8B5002801D0002400E0204C002C39D025464035A878012834D1E98AA07801F060
:4051C000EBF92046FEF7B2FD01282BD002F0B0F92A8A6179FFF78AF9064601F001F82836B1B2204601F0B4FFE98AA07801F0D4F9FF206130FDF772FE6E8A0D4F0146002ED4
:4052000011D0304648430B49FDF76CF90004000C01D0401C80B27880288A704381B2A07801F062FAF8BD0020F5E70000CC1300205A0200207102000070B50D46124A010007
:4052400001D0002401E014462034002C1BD0204600F034FA01280AD18820484380186030007FFEF7BBFE002801D101F06DFE20464030817E491B8176204600F027FC2089DB
:40528000294602F0A2FD70BDAC13002070B503460088FFF7ADFE040013D000F004FA00280FD02079092819D02546997840352973204601F0BFFE0646A878012803D0AA8A7F
:4052C00002E0022070BDEA880A20424301212046FEF764FF002E01D109202071002070BD0EB5002217216B460292198100905A810120029B00990AF065FA0EBDF8B5184E80
:405300000024F079002820D10025AC20FDF7E6FD000B21E0204600F00BFEFDF7DFFD07462A46214600F032FA01280FD00D48012187838577C477F171002D01D0002000E064
:405340002030002801D000F0C1FBF8BDAC20FDF7C5FD000B641CE4B20028DBD1F8BD00005C140020AC13002010B50088FFF740FE002809D0014640310C460978082905D0D5
:405380000B2903D00C2010BD022010BDFFF778FC002801D009202070002010BD70B503460088FFF725FE040008D0254640352878082805D00B2803D00C2070BD022070BDD7
:4053C0008420005910220830991CFDF7CCF82046FFF728FB2878082804D02046FFF7DAFC002801D00A202870204600F06FFB002070BD000010B50C46002121700088FFF775
:40540000F7FD03000BD000F04EF9002807D009481121807A0840C00603D4112010BD022010BD022020701A8A1889002102F048FD002010BD58130020F8B50F46002100919A
:405440000088FFF7D5FD040012D000F02CF900280ED0E079410641D4617E02264A07002A08DB8907402500291ADA2843E07135E00220F8BD02F058F80021017021894180C8
:40548000A1898180217E4170E189C1803E7005460178134802F07AFA284602F0B5FC1DE0204600F011F9012806D068460AF0AAF8002803D00720F8BD2A20F8BDE079009914
:4054C0002843E071204601F0DFFD607E0421304360760448C28A2046FEF760FE0020F8BD1D040000581300203EB500220F236C460292238100910190628169460EC90020C3
:405500000AF060F93EBD000070B5054600F060FA040024D003202071254600264035EE76E6702046FFF708FA01F01EF80920FEF731FEA07800F00AFD0121204600F0E0FAE4
:405540002E706E70AE7000212046FFF714FD0649887B401C8873012001F038F970BD284601F000F970BD0000AC13002010B5002801D0002400E00A4C002C0FD0204640308D
:40558000417802290AD1002141702046FEF7CEFB002803D10221204600F0B2FA10BD0000CC13002070B503460D460088FFF720FD04000BD000F077F8002807D01248112124
:4055C000807A0840C00603D4112070BD022070BD20464030418A008A491C41430804C10C5888884201D2122070BD20822079072802D12046FFF730F9022028702089002110
:4056000002F086FC002070BD58130020016A491C016204D1817E491C4906490E81767047C169491CC16104D1C17E491C4906490EC176704770B500250646002801D00024ED
:4056400000E0114C002C1CD0882200212046FCF793FFA67000202646207140363070204600F018F8204601F093F9084820820848B577807A1121084000D001202075012004
:4056800070BD002070BD0000CC130020B80B000058130020002101628176C161C17620300177417770470079002805D0012803D0022801D001207047002070474030807F8D
:4056C000002800D00120704740300078002807D0012805D0052803D00E2801D0012070470020704710B5807801F002F9002800D0012010BD10B500F0A0FB0446AC20FDF756
:40570000EDFB010B02D02046FFF7EEFE10BD000070B5054604464035A87F002823D1FF206075A0788821144A484380186030417F8823491CC9B24177A07858438018603078
:40574000052901D300214177A0788821484380186030467F0677A1783046FEF73FFC002802D00120A87770BD0220A877A078314600F0B2FC70BD0000AC1300200020401C7C
:405780000006000EFBD0002070470000F0B515468207920F85B0C004C00E02926A469080002D01D0002400E0514C002C29D0084600F0BEFB03906846808800280BD002984D
:4057C000012845D0022843D003280CD03D20005D012872D086E00398FDF780FB01462046FFF799F87EE00020029002A809F0EAFE002807D03D20005D012876D12046FFF73E
:4058000005FF72E06846029E8388324600210398FDF7DAFA0398FDF761FB01462046FFF77AF8284600F0B0FA01AA21463046FEF773FE002806D0304609F034FF3D204C215D
:40584000085528E0F5773146204601F0EFF94CE0002000902789684609F0A4FE002802D0002005B0F0BD6846009E8388321D00210398FDF7A9FA0398FDF730FB01462046F0
:40588000FFF749F8284600F07FFA25464035287E00280CD103E02046FFF7DEFA25E001AA21463046029BFEF76BFE002806D0304609F0EEFE3D202873EDE710E00298FFF70B
:4058C00039F8390A000101433770717068468088B070000AF0703046FFF702FD05E02046FFF794FE284600F04FFA0120B9E70000CC13002010B5044A917B002901D0491E02
:405900009173FFF797FE10BDAC130020F8B5074606464037B87F00283DD0B0788821009048431F4945186035287F0099FEF76BFB012831D0287F401CC4B2052C00D3002457
:405940000020B877FF276F772F77A87702460146009800F041FD717DFF2903D0304600F0D8FF777501F0F0FA00252F462246694630460097FEF798FF0099002902D0304671
:40598000FEF759FB641CE4B2052C00D300246D1CEDB2052DEAD3F8BD0320B877F8BD0000AC13002010B502460021084B03E0002901D0002000E018460479944204D0491C66
:4059C0000906090EF3D0002010BD0000CC13002000B50120FFF7E6FF00BD10B5044601F0A3FD2189018080346168416061682831816002F0C3F910BDF7B50646087982B052
:405A00000C46092807D0A078F0770846FFF756FE012806D010E0304609F058FE022005B0F0BDA1788820284A484380186030007FFEF7D4FA012810D0A078FEF775FE0128E3
:405A40000BD037780121304601F02BFA25462035062F36D00B2F0FD107E06846027C21463046FEF74BFF0D20D9E72046FEF75EF9012801D1002028772046FFF7DBFA0546D5
:405A800004AA21463046FEF7B0FD01205F2108556946087C0090A07833463A46294600F0C7FA69460A7CA0780323294600F072FEA0782946FEF76EF8304609F007FE00200F
:405AC000ADE70120D7E70000AC13002010B502464032937F0021002B03D1927E002A00D00121064AD279002A00D000210279092A00D10121807800F077FE10BD5C14002066
:405B000070B50C460646FEF711F9002814D1012C0ED935464035A87800280DD1687802280AD03079092807D03046FFF7DBFD0446204600F086FD70BD0124F9E770B50D46C6
:405B400001280BD0082808D1A8241146B020FDF7CBF929462046FDF7C7F970BD2020FAE710B501460820FDF7BFF910BD10B50446FF20F130012C01D1FF20D530002200F065
:405B80007EFE1020FDF7AAF90349A043088001461020FDF7A9F910BD5E02002010B504461020FDF79BF90449A043088001461020FDF79AF910BD00005E02002010B50446B8
:405BC000012802D0082C07D102E0FF20D53001E0FF20F13000F048FE1020FDF77FF904492043088001461020FDF77EF910BD00005E02002010B504461020FDF76FF9044956
:405C00002043088001461020FDF76EF910BD00005E020020F8B507460120B84085B214460E46012229467C2000F029FE32462946782000F024FE6078217800020143E0787D
:405C4000A5780002054360792679000206430C2047430D2080013C182046FDF745F9241D29462046FDF740F9201D3146FDF73CF9F8BD8B00034310B5D10191201943C000A0
:405C8000FDF732F910BD000070B505460C46407829780002014341200001FDF725F9E878A978000201430A48FDF71EF960782178000201438320C000FDF716F9E078A17871
:405CC0000002014302480830FDF70EF970BD00001404000070B50D46044681B201208002FDF702F9210C0448FDF7FEF881202946C000FDF7F9F870BD0404000070B5054658
:405D000000242846FDF7EAF8641CA4B2102CF8D370BD10B50C460146B020FDF7E5F8FF2021462D30FDF7E0F810BD10B50C460146B020FDF7D9F8204600F0CCFD0021FDF74F
:405D4000D3F810BD70B50C46054600F005F821462846FFF7DEFF70BD10B50C460146B020FDF7C2F8FF2021462930FDF7BDF810BD10B50146B020FDF7B7F8FF2000222021D5
:405D80001D3000F07CFD10BD010210B54D310020FDF7AAF810BD000010B504020029014608D0B020FDF7A0F8214675310020FDF79BF810BDB020FDF797F851200021400181
:405DC000FDF792F800210348FDF78EF821467631ECE70000240A000010B554210020FDF783F810BD10B553210020FDF77DF810BD10B5034908884880FFF7D0FE10BD000011
:405E00005E02002010B502484088FFF7F3FE10BD5E02002010B5FDF75BF910BD10B552210020FDF761F810BD10B504461820FDF755F88004400F207010BD10B5B020FDF74A
:405E40004DF8C0B210BDF8B50E4601461C461546B020FDF749F8FF20E930FDF73FF80746FF200130FDF73AF83080FF200930FDF735F82880FF200530FDF730F8208079070D
:405E80000698490F0170F8BD10B5C820FDF726F810BD10B50C46002812D05820FDF71EF82070000A60705C20FDF718F8A070000AE0706020FDF712F82071000A607110BD8C
:405EC000FF20C130FDF70AF82070000A6070FF20C530FDF703F8A070000AE070FF20C930E8E770B504466820FCF7F8FF06466C20FCF7F4FF05467020FCF7F0FF2670310AB1
:405F00006170A570290AE1702071000A607170BD10B50446012905D01820FCF7DFFFC00B207010BD4820FCF7D9FF8007C00FF7E70120C002704710B50C460146B020FCF7FD
:405F4000D3FF0321A0014902401810BD8821074B414310B5C918FF2260314A770A7700228A77114600F038FA10BD0000AC13002088225043074A10B58018FF216030417766
:405F80000177002181770448418EFF201D3000F06BFC10BDAC1300205813002010B50C460146B020FCF7A0FFFF202530FCF796FF0222214600F002F810BD000010B5002355
:405FC000884201D8081A03E00024E443201A4018044980B2884201D8824200D90123184610BD0000FF7F0000F8B503465078167800020643D0789578000205435079177901
:40600000000288240743002900D098241946B020FCF76AFF31462046FCF766FF201D2946FCF762FF204608303946FCF75DFFF8BDFFB581B014460D4606460A9FFFF77BFFDB
:406040003B460021049AFCF72FFF02484019845505B0F0BD6202002070B506460D4611242520A40108214001FCF73EFF2B46324600212046FCF718FF70BD70B52124054684
:406080006401FFF7AFFE10232A4600212046FCF70BFF70BD10B5044640782178000201438F20C000FCF720FFE078A178000201430148FCF719FF10BD7C04000010B50C46EE
:4060C0000146B020FCF710FF802021460143FF202930FCF709FF10BD70B50D460146B020FCF702FFFF241D342046FCF7F7FE01090901FF202943013001432046FCF7F4FE58
:4061000070BDF8B500242646012807D0032802D0052808D105E002240A2604E004240C2601E004240D26492701463F013846FCF7DBFE25204001FCF7D1FEC5B2284620426D
:40614000F7D0252031464001FCF7CEFE00213846FCF7CAFE2846F8BD70B50D46044601461646B020FCF7C0FE512029464001FCF7BBFE31460648FCF7B7FE03218903082027
:40618000FFF71CFD210275310020FCF7ADFE70BD240A000070B50D4604460146B020FCF7A3FEFF2029461930FCF79EFE21024B310020FCF799FE70BD70B5491E8CB2054690
:4061C0000146B020FCF790FEFF2021461930FCF78BFE29024C310020FCF786FE70BD0000054910B5884200D908460146FF206130FCF77AFE10BD0000FF0F0000054910B5FC
:40620000884200D908460146FF206530FCF76CFE10BD0000FF0F000070B588251446002900D098250146B020FCF75EFE2846FCF755FE2070000A6070281DFCF74FFEA0703F
:40624000000AE07028460830FCF748FE2071000A607170BD10B51446024611200B4680010021FCF70DFE012C01D1FFF7B5FD10BD10B504460920C001FCF730FE2070000A9B
:4062800060700448FCF72AFEA070000AE070FFF7A3FD10BD840400000121814010B589B200227C2000F0EBFA10BD000070B5FF210120FFF75BFCFF210820FFF757FC30207B
:4062C000FFF76CFC80210020FCF70EFE002211460320FCF73DFE374DFF20A98DD530FCF703FE0024FF26F1362146B020FCF7FCFD298F3046FCF7F8FD2046FFF739FE641C28
:406300002406240EF0D0FF20A98FF930FCF7ECFD28481030044600F079F9204600F0BEF900F04CF8234CB82040346188FCF7DCFDA188BC20FCF7D8FDE188C420FCF7D4FDFA
:40634000FF20698EE130FCF7CFFDA12000210001FCF7CAFD3920FFF74DFCFFF743FD93200721C000FCF7C0FDFFF736FDE020FFF7C5FCE820FFF7C2FCF020FFF7BFFC002004
:40638000FEF7AAF8618A0C48FCF7AEFD0A482821001DFCF7A9FDFF210131AC20FCF7A4FD832000218000FCF79FFD5B210020FCF79BFD70BD58130020140A000010B50021B0
:4063C0007C20FCF791FD00217820FCF78DFD74210020FCF789FD10BD70B50D4601461446B020FCF781FDFF261D363046FCF776FD01090901FF20294301308143002C01D10F
:40640000102041403046FCF76FFD70BDF3B589B0FF2001900D208001009048780D7800020543C8788E780002064348790979000201437C200791FCF751FD06907820FCF79B
:406440004DFD059074210020FCF74EFD18480024049026E00120A04087B20098FCF73EFD03900098FCF73AFD02900098FCF736FD039A29465140029A72401143079A424025
:4064800011430BD10698074208D00598E040C1070998C90F814201D1019405E0641C0498E4B20078A042D5D801980BB0F0BD00009813002070B5FF257C20FCF70FFD084926
:4064C000002401230A7805E01946A140014205D0641CE4B2A242F7D8284670BD2546FBE79813002010B504461820FCF7F7FC0721C90288436107890C01431820FCF7F4FCD2
:4065000010BD10B50446E020FFF7F8FB20782246401CC3B20021E020FCF772FC10BD000010B5044641790079042817D040000843A17B032901D8C9000843617B4A010243F5
:40654000A079010207201143C00201431820FCF7CBFC21881C20FCF7C7FC10BD08460149E5E700000204000010B5012000F02EF90120FFF713FB41210020FCF7B5FC10BDA5
:4065800010B5002000F022F90120FFF733FB40210020FCF7A9FC10BD10B50C460146B020FCF7A2FCFF2021460D30FCF79DFC10BD70B50C4601461E461546B020FCF794FC15
:4065C000E92021468000FCF78FFC75202946C000FCF78AFCEB2031468000FCF785FC6C433B20A1B20001FCF77FFC70BD70B50C4601461546B020FCF777FC21468420FCF734
:4066000073FC29468020FCF76FFC70BD10B504464078217800020143FF20C130FCF764FCE078A17800020143FF20C530FCF75CFC6079217900020143FF20C930FCF754FC1E
:4066400010BD70B5A124054624012046FCF746FC012D07D041084900814202D02046FCF743FC70BD014601221143F5E710B5044640782178000201436820FCF735FCE07823
:40668000A178000201436C20FCF72EFC60792179000201437020FCF727FC10BD10B5044640782178000201435820FCF71DFCE078A178000201435C20FCF716FC60792179D1
:4066C000000201436020FCF70FFC10BD10B50446E820FFF713FB20782246401CC3B20021E820FCF78DFB10BD10B50C460146B020FCF7FAFB21460248FCF7F6FB10BD000034
:406700001C0A000010B50C460146B020FCF7ECFBFF2021460530FCF7E7FB10BD70B5054688000521FBF77EFE84B22946B020FCF7DBFB21460448FCF7D7FB2902723100209E
:40674000FCF7D2FB70BD0000040A000010B504460146B020FCF7C8FB210273310020FCF7C3FB10BD10B504460146B020FCF7BCFB210270310020FCF7B7FB10BD10B50446A8
:406780000146B020FCF7B0FB210271310020FCF7ABFB10BDF8B505461E4614460F46084600F098F800902802A1000843304304462946B020FCF798FB21460098FCF794FB57
:4067C0000148C0194655F8BD6702002010B50446B820FCF783FB8005800DA102014389B2B820FCF781FB10BD70B50D460146B020FCF77AFBFF241D342046FCF76FFB40216F
:406800008843A90101432046FCF76EFB70BD70B5A124054624012046FCF760FB0222002D01D0104300E0904301462046FCF75CFB70BD70B50D460146B020FCF755FBFF2065
:4068400029460930FCF750FBA12424012046FCF745FB0222002D01D0104300E0904301462046FCF741FB70BD70B50C460546FCF735FB204301462846FCF736FB70BDF8B583
:4068800016460D460746FCF729FB014600202C0003D104E06408401C80B2E207FAD08640A9430E43B1B23846FCF71EFBF8BD0000024A1018405C8007800F704767020020C2
:4068C00010B50146B020FCF70FFBFF202D30FCF705FB10BD8000FF30413070470246FF20052902D201484018805C70476202002010B50146B020FCF7F7FAFF202930FCF760
:40690000EDFA10BD0A4600B501461046FFF7E6FF00BD38B50C46054600216846009108F071FE002804D1009928464C7000F09EFB38BD10B5044680780021FFF72DFE01216F
:406940002046FFF7DDF810BD436E002B0CD00B60014660318B781370826E4266CA788A700021816608467047FF20704710B50346446E6033002C04D0846E002C04D0FF207D
:4069800010BD41669A7001E08166DA70002010BD0021416681667047406E002801D000207047FF20704770B50446C0790D46810610D5DF210840E07100F0B6FD05702189DE
:4069C00041804034218A8180618AC180A18A018101F036F970BD000010B50446FEF76EFE01280AD1A1788820054A484380186030007FFDF7F3FA012801D000F0A5FA10BDA3
:406A0000AC13002070B50D460446FDF78FF901281CD02079042801D0072816D1E879AE7900020643A0783146FFF7B8FA012813D03246691C204600F035FA02212046FDF763
:406A4000BCFE01212046FFF75BF870BD01222421204600F0C3FA70BD28214C2001552046FEF7FAF970BD70B50D460646FDF73BFE002847D120213046FDF79BFB3446687864
:406A800040346073E87820220002E081A9780843E0816879010228790843218A814203D0F1791143F1712082E8790102A8790843618A814203D0F1791143F1716082687AB5
:406AC0000102287A0843A18AE180814203D0F1791143F171A082A08A218A8000FBF7A2FC401E618A80B2814200D9608201213046FDF766FEE87AA97A000201430022304611
:406B000000F0DCFA70BD0000F8B50C460546FDF70DF9012849D0294EB07AC00709D02846403000900078002805D0102805D01F212EE01A212CE0002700E001272846FEF784
:406B400069FA002823D02E4680360822611C7068FBF709FD7068617A20300172A17A417270682146183008220B31FBF7FCFC21462846042213313430FBF7F5FC3946284668
:406B8000FEF72AF8002810D1002F0FD012E007210322284600F022FAF28A08212846FDF7FDFA11212846FDF70EFEF8BD06212846FDF70CFE009801210176F8BD5813002097
:406BC00010B5FEF749F810BD38B504460020009020790D46042801D007281BD12046FDF7A5F8012817D0684608F00CFD002811D10C486A78807A00991040112210402075F1
:406C0000607E082210436076204600F079F92046FDF71FFE38BD08222421204600F0DEF938BD0000581300207047000070B506460D460846FEF7CAF804463046FEF733FD6E
:406C400000280CD0142C04D32946304600F0C7F805E00549A0000A58294630469047284608F020FD70BD00007C1C010070B50D460021002801D0002400E00C4C002C14D02D
:406C800020464030C177807F032802D12046FEF73DFE2046FFF7A0FE142D04D20449A800095820468847FEF769FD70BDCC130020CC1C010010B5014640310C4609780E29A0
:406CC00003D1FEF70DF80120207610BD10B54021095C0F2901D1FEF726F810BD4021095C0F2902D1002120304177704738B5044600220E4800920D46807A11210840C0064E
:406D00000ED52046FEF7E0FC012809D0684608F079FC002803D12046009900F053F938BD2946204600F05BF838BD00005813002010B51021FDF73DFA10BD10B54978FDF7F0
:406D40001BFF10BD10B5FDF7F6FF10BD012120304177704710B54021095C0C2901D1FDF7FFFF10BD10B54021095C0D2901D1FDF7F3FF10BD70B5044600790D46052803D0FE
:406D8000062801D0082802D12046FDF707FF68784C21085509212046FDF718FD2046FFF7C8FD2046FCF7C2FF0128A07805D0FFF7D9FC2046FEF78AFE70BDFFF7DFFCF8E752
:406DC00010B50446FF21FDF7F4F916214C200155A078FFF7C7FC2046FEF778FE10BD70B50C460546FEF76AFC002802D02078687570BD21782846FFF78CFD70BD70B505463F
:406E000048780C46032802D12846FDF7D2FE6078122803D110212846FDF7CBF970BD704738B5044600200D46009004212046FDF7C0F968782076E8780002A081A978084318
:406E4000A08168790002E08129790843E081607E04210843607680070CD4684608F0D2FB00281CD12046009900F00EF9607E022108436076E079410611D5BF210840E07135
:406E800000F052FB00210090017021894180A1898180217E4170E189C18000F0B5FF38BD7047704770B50446C07815460A4600280AD00020E070C1B2A078FFF795F8A078F1
:406EC0002946FFF767F970BD0120F3E770B50546042008700C468420415908222031601CFBF741FB29462046042238310930FBF73AFB0D2229462046FEF77EFD002070BD5F
:406F000070B5054609200C46087008220021601CFBF732FB287D607004480922C07AA07029462046FEF768FD002070BD581300200B4610B501460B20187001221846FEF745
:406F40005BFD002010BD0000FEB50024164F03E0002C01D0002500E03D462846FFF71CFD00281BD15F20405D002817D16A4601A92846FFF7E9FC002810D1019869460A78F5
:406F800006782946FEF738FD022E07D1A8780121FFF72AFC09212846FDF718FC641C2406240ED5D0FEBD0000CC13002010B50B46122119708178D977014601221846FEF7A1
:406FC0001BFD10BD10B50B46132119708178D977014601221846FEF70FFD10BD38B50546002000900C46684608F00CFB002801D0072038BD00980D21017044700222294680
:40700000FEF7FAFC002038BD0B4610B501460520187001221846FEF7EFFC002010BD0B4610B501460620187001221846FEF7E4FC002010BD38B5054600200090684608F01C
:40704000E1FA002801D01F2038BD009C022020704C20405D6070A878E0772846FFF769FC022229462046FEF7C7FC38BD10B50B46072119708178D977014602221846FEF72D
:40708000BBFC002010BD000010B50B460A49044608880C221A704A795A709870000AD870C8881871000A5871062221461846FEF7A3FC002010BD000058130020F8B50446AE
:4070C000403417460E460546E289617B8078FFF78DFA002F0DD100F02BFAE2896979FDF705FAFFF78BF8608A002800D00120FFF78EFBE388A08A984200D90346628A218ADF
:40710000A878FFF755FAA08A218AC000FBF78AF981B2ED208000FBF7E7FEE089E188C0080A30081881B21920C001814200D90146A878FFF7E7FAA8783146FFF73DF801216A
:407140002846FEF7DDFCF8BD00B500F01FF800BD10B50A4604460B491046FBF763F94034C01C218A80B2814200D208464900081A81B20548E182C089002802D0884200D211
:40718000E08210BD710200009813002040184008704770B505460C46000702D5A0B2FDF7B5FFE80702D0200EFDF75EF870BD70B5054650C8FCF71EFDFBF7C2FC2889C01F35
:4071C0000300FBF7CBFB0C07130B171A1D0B0B200B100C0BA0B23146FFF7DBFF70BD204600F040FB70BDFDF755FF70BD2046FCF760FE70BDFCF77BFF70BDFDF76DFF70BDE9
:40720000FDF76BFF70BDE0B2FEF778F870BD0000F3B5002483B0064627460094019408200294FBF75BFE05460640400713D55020FBF754FEC0B20090700707D5009CA008A8
